{"abi":[{"type":"function","name":"completeTodo","inputs":[{"name":"_id","type":"uint256","internalType":"uint256"}],"outputs":[],"stateMutability":"nonpayable"},{"type":"function","name":"createTodo","inputs":[{"name":"_content","type":"string","internalType":"string"},{"name":"_tags","type":"string[]","internalType":"string[]"}],"outputs":[],"stateMutability":"nonpayable"},{"type":"function","name":"getTodoCount","inputs":[{"name":"_user","type":"address","internalType":"address"}],"outputs":[{"name":"","type":"uint256","internalType":"uint256"}],"stateMutability":"view"},{"type":"function","name":"getUserTodos","inputs":[{"name":"_user","type":"address","internalType":"address"},{"name":"_offset","type":"uint256","internalType":"uint256"},{"name":"_limit","type":"uint256","internalType":"uint256"}],"outputs":[{"name":"","type":"tuple[]","internalType":"struct AzimuthTodo.Todo[]","components":[{"name":"id","type":"uint256","internalType":"uint256"},{"name":"content","type":"string","internalType":"string"},{"name":"tags","type":"string[]","internalType":"string[]"},{"name":"isCompleted","type":"bool","internalType":"bool"},{"name":"createdAt","type":"uint256","internalType":"uint256"}]}],"stateMutability":"view"},{"type":"event","name":"TodoCompleted","inputs":[{"name":"user","type":"address","indexed":false,"internalType":"address"},{"name":"id","type":"uint256","indexed":false,"internalType":"uint256"}],"anonymous":false},{"type":"event","name":"TodoCreated","inputs":[{"name":"user","type":"address","indexed":false,"internalType":"address"},{"name":"id","type":"uint256","indexed":false,"internalType":"uint256"},{"name":"content","type":"string","indexed":false,"internalType":"string"},{"name":"tags","type":"string[]","indexed":false,"internalType":"string[]"},{"name":"createdAt","type":"uint256","indexed":false,"internalType":"uint256"}],"anonymous":false}],"bytecode":{"object":"0x6080806040523461001657610bbe908161001c8239f35b600080fdfe6080604052600436101561001257600080fd5b60003560e01c80631a3cc52b1461069657806320fe2144146105da5780635ea70cb3146100875763fe4df7571461004857600080fd5b34610082576020366003190112610082576001600160a01b0361006961093c565b1660005260016020526020604060002054604051908152f35b600080fd5b346100825760403660031901126100825760043567ffffffffffffffff8111610082576100b89036906004016109d0565b6024359067ffffffffffffffff82116100825736602383011215610082578160040135916100e583610a27565b906100f360405192836109ae565b83825260208201906024829560051b820101903682116100825760248101925b8284106105aa5750505050336000526001602052604060002054916000602052604060002060405161014481610992565b8481526020810191838352846040830152600060608301524260808301528054600160401b8110156104545761017f91600182018155610a4c565b92909261059457815183555180519067ffffffffffffffff8211610454576101aa6001850154610a92565b601f811161055f575b50602090601f83116001146104ed576101e59291600091836104e2575b50508160011b916000199060031b1c19161790565b60018301555b6040810151805190600160401b821161045457600284015482600286015580831061046a575b5060200190600284016000526020600020916000905b82821061032d57505050506080600491600384016060820151151560ff80198354169116179055015191015533600052600160205260406000209081549160001983146103175760016102949301905560405193338552602085015260a0604085015260a0840190610952565b90828203606084015251808252602082019160208260051b82010194926000915b8383106102ea574260808701527fce46ff1db1a296bb36d2a2851239527632de12f211339055deef808c1611383786880387a1005b9091929395602080610308600193601f198682030187528a51610952565b980193019301919392906102b5565b634e487b7160e01b600052601160045260246000fd5b805180519067ffffffffffffffff82116104545761034b8654610a92565b601f8111610417575b50602090601f83116001146103a7579261038d8360019594602094879660009261039c5750508160011b916000199060031b1c19161790565b87555b01940191019092610227565b0151905038806101d0565b908660005260206000209160005b601f19851681106103ff575083602093600196938796938794601f198116106103e6575b505050811b018755610390565b015160001960f88460031b161c191690558f80806103d9565b919260206001819286850151815501940192016103b5565b61044490876000526020600020601f850160051c8101916020861061044a575b601f0160051c0190610b71565b8c610354565b9091508190610437565b634e487b7160e01b600052604160045260246000fd5b600285016000526020600020908382015b818301811061048b575050610211565b8061049860019254610a92565b806104a5575b500161047b565b601f811183146104bb5750600081555b8c61049e565b6000908282526104d9601f60208420920160051c8201858301610b71565b818355556104b5565b0151905089806101d0565b9190600185016000526020600020906000935b601f1984168510610544576001945083601f1981161061052b575b505050811b0160018301556101eb565b015160001960f88460031b161c1916905588808061051b565b81810151835560209485019460019093019290910190610500565b61058e90600186016000526020600020601f850160051c8101916020861061044a57601f0160051c0190610b71565b886101b3565b634e487b7160e01b600052600060045260246000fd5b833567ffffffffffffffff8111610082576020916105cf8392602436918701016109d0565b815201930192610113565b346100825760203660031901126100825760043533600052600160205260406000205481101561065b5760407f67ded622a190b565ce61203d9279a5c28931773c0919bf91ce964f6cd909e9b49133600052600060205260036106408284600020610a4c565b5001600160ff198254161790558151903382526020820152a1005b60405162461bcd60e51b8152602060048201526013602482015272151bd91bc8191bd95cc81b9bdd08195e1a5cdd606a1b6044820152606490fd5b34610082576060366003190112610082576106af61093c565b6001600160a01b03166000818152600160205260409020546044359060243590806106da8484610a3f565b11610928575b506106ea82610a27565b926106f860405194856109ae565b82845261070483610a27565b601f190160005b8181106108ee57505060005b83811061081357846040518091602082016020835281518091526040830190602060408260051b8601019301916000905b82821061075757505050500390f35b919390929450603f1986820301825284519061078660a083518352602084015190806020850152830190610952565b916040810151928281036040840152835180825260208201906020808260051b85010196019260005b8281106107e857505050505060019260209282606085940151151560608301526080809101519101529601920192018594939192610748565b9091929396602080610806600193601f198782030189528b51610952565b99019501939291016107af565b816000526000602052610834604060002061082e8386610a3f565b90610a4c565b506040519061084282610992565b8054825261085260018201610acc565b602083015260028101805461086681610a27565b9161087460405193846109ae565b81835260208301906000526020600020906000905b8382106108d157505050506040830152600381015460ff1615156060830152600401546080820152600191906108bf8288610a7e565b526108ca8187610a7e565b5001610717565b6001602081926108e086610acc565b815201930191019091610889565b6020906040516108fd81610992565b600081526060838201526060604082015260006060820152600060808201528282890101520161070b565b9080925081039081116103175790836106e0565b600435906001600160a01b038216820361008257565b919082519283825260005b84811061097e575050826000602080949584010152601f8019910116010190565b60208183018101518483018201520161095d565b60a0810190811067ffffffffffffffff82111761045457604052565b90601f8019910116810190811067ffffffffffffffff82111761045457604052565b81601f820112156100825780359067ffffffffffffffff82116104545760405192610a05601f8401601f1916602001856109ae565b8284526020838301011161008257816000926020809301838601378301015290565b67ffffffffffffffff81116104545760051b60200190565b9190820180921161031757565b8054821015610a68576000526005602060002091020190600090565b634e487b7160e01b600052603260045260246000fd5b8051821015610a685760209160051b010190565b90600182811c92168015610ac2575b6020831014610aac57565b634e487b7160e01b600052602260045260246000fd5b91607f1691610aa1565b90604051918260008254610adf81610a92565b90818452602094600191600181169081600014610b4f5750600114610b10575b505050610b0e925003836109ae565b565b600090815285812095935091905b818310610b37575050610b0e9350820101388080610aff565b85548884018501529485019487945091830191610b1e565b92505050610b0e94925060ff191682840152151560051b820101388080610aff565b818110610b7c575050565b60008155600101610b7156fea26469706673582212203306c7d8bb732354d1204a88d8f86534003104ab88b95216452fa46904a1d87064736f6c63430008170033","linkReferences":{}},"methodIdentifiers":{"completeTodo(uint256)":"20fe2144","createTodo(string,string[])":"5ea70cb3","getTodoCount(address)":"fe4df757","getUserTodos(address,uint256,uint256)":"1a3cc52b"},"id":20}